:1000000048710020B1BF0000A9C00000A9C00000D5
:1000100000000000000000000000000000000000E0
:10002000000000000000000000000000C5570000B4
:100030000000000000000000E15800002959000005
:10004000A9C00000A9C00000A9C00000A59C000034
:10005000D5980000A9C00000A9C00000A9C00000F8
:10006000A9C0000049A3000061A3000079A300001B
:1000700091A30000A9A30000C1A30000F9BE0000E5
:100080000DBF000021BF0000B9350000CD350000D4
:10009000E13500000000000000000000A9C00000E1
:1000A000A9C00000A9C00000A9C00000A9C00000AC
:1000B0000000000010B5064C2378002B07D1054B3B
:1000C000002B02D0044800E000BF0123237010BDC4
:1000D0001402002000000000CC1D0100084B10B5E8
:1000E000002B03D00749084800E000BF0748036819
:1000F000002B00D110BD064B002BFBD09847F9E731
:100100000000000018020020CC1D0100CC1D0100E1
:100110000000000080B584B000AF78607B681B6889
:10012000FB60FB68DB69072213405A1E9341DBB278
:100130001800BD4604B080BD80B582B000AF7860C5
:10014000C0467B681800044B9847031EF9D1C0468F
:10015000BD4602B080BDC0461501000080B584B028
:1001600000AF78607B681B68FB60FB681B681B0145
:10017000DB0FDBB21A000B23FB18511E8A411A70E9
:100180000823FB187A68528B1A807B689B8B9AB283
:100190000823FB180821791809888A1A1A807B68B5
:1001A0009B8B9BB2013B9AB27B689A830B23FB1813
:1001B0001B78002B10D07B68DB7A002B1CD07B686F
:1001C0009B8B9BB2012B17D1FB685B688022D2020C
:1001D0001A43FB685A600FE07B68DB7A002B0BD078
:1001E0007B689B8B9BB2002B06D1FB685B688022EF
:1001F000D2021A43FB685A607B689B8B9BB2002B30
:100200000ED17B689B7A002B0AD07B6818000E4BBE
:100210009847FB685B68C02292021A43FB685A60E9
:100220007B681800084B98477B681A6A0823FB18FC
:100230001B88D318FA682821525CD2B21A70C046C3
:10024000BD4604B080BDC0463901000080B584B011
:1002500000AF78607B681B68FB60FB685B8B9BB2C0
:100260001A000423134004D07B6825221E219954D0
:1002700024E00A23FB187A68528B1A807B689B8BD8
:100280009AB20A23FB180A21791809888A1A1A8057
:100290007B689B8B9BB2013B9AB27B689A837B689D
:1002A0001800084B98477B681A6A0A23FB181B88BA
:1002B000D3181B78D9B2FB6828229954BD4604B0E4
:1002C00080BDC0463901000080B584B000AF7860C1
:1002D0007B681B68FB60FB681B7EDBB21A00012396
:1002E00013402BD0FB6801221A76FB685B8B9BB214
:1002F0001A000223134004D07B682522412199541F
:100300001CE0FB685B8B9BB21A000423134015D0E2
:100310007B682522182199547B6800229A837B6888
:100320009B7A002B0AD07B681800134B9847FB6818
:100330005B68C02292021A43FB685A607B689B8B01
:100340009AB27B685A837B6825229B5CDBB2052BC3
:100350000ED17B6824229B5CDBB2002B04D17B682E
:100360001800064B984703E07B681800044B984739
:10037000C046BD4604B080BD390100004D020000FA
:100380005D01000080B584B000AFF860B960FB1D6E
:100390001A70FB1D1B78FA6802339B00D3180433D4
:1003A000BA681A60FB681B7EDBB25AB2FB1D1B7871
:1003B000012199400B005BB213435BB2DAB2FB68D8
:1003C0001A76C046BD4604B080BD000090B587B027
:1003D00000AF786039607B681B683B613B685A6896
:1003E0007B681A623B685A887B689A837B68242200
:1003F000012199547B682522052199543B691B688A
:100400001B01DB0FDBB21A000F23FB18511E8A41C0
:100410001A703B685B7A002B06D03B689A7A7B683F
:10042000110018003B4B98470F23FB181B78002B3B
:100430000BD03B685B88012B07D13B695B6880224E
:10044000D2021A433B695A6005E03B695B68324A55
:100450001A403B695A603B681B7A002B45D03B68C9
:100460001B885A003B685B7A9B0313431A00802366
:100470001B021A433B695A621723FC187B68180059
:10048000264B9847030023703B695B68224A1A4059
:100490003B695A601723FB181B78002B07D11723E1
:1004A000FC187B6818001E4B984703002370172325
:1004B000FB181B78002B14D13B6903229A753B680B
:1004C0001B881B0A9BB2782213439BB25A003B68DD
:1004D0005B7A9B031343012213431A003B695A6260
:1004E00012E01723FB181B780FE03B6903229A7573
:1004F0003B681B885B0001221A433B685B7A9B03C5
:1005000013431A003B695A6200231800BD4607B026
:1005100090BDC04665350000FFFFFBFF07350000BA
:10052000A934000080B582B000AF786039607B6884
:100530009B8B9BB2002B01D005230CE07B68012232
:100540009A727B680122DA723A687B68110018009F
:10055000034B984703001800BD4602B080BDC0465B
:10056000CD03000080B584B000AF786039607B684F
:100570001B68FB603B685B7A002B06D03B689A7A6D
:100580007B68110018001E4B9847FB685B681D4A8A
:100590001A40FB685A603B685A687B681A623B687D
:1005A0005A887B689A837B682422002199547B684F
:1005B000252205219954FB6803229A753B681B7A12
:1005C000002B0DD03B681B885A003B685B7A9B036D
:1005D00013431A0080231B021A43FB685A6209E086
:1005E0003B681B885A003B685B7A9B0313431A00E5
:1005F000FB685A6200231800BD4604B080BDC046A7
:1006000065350000FFFFFBFF80B582B000AF78606A
:1006100039607B689B8B9BB2002B01D005230CE0DB
:100620007B6801229A727B680122DA723A687B68E1
:1006300011001800034B984703001800BD4602B094
:1006400080BDC0466505000080B586B000AF0200E1
:10065000FB1D1A70FB1D1A78934B9200D3587B61D7
:100660007B691B683B613B691B681B01DB0FDBB2CD
:100670001A000F23FB18511E8A411A700E23FB1813
:100680007A69527E1A707B691B7EDAB20E23FB18E0
:100690000E21791809780A401A707B695B8B9BB22E
:1006A000002B09D17B699B8B9BB2002B04D07B690B
:1006B00018007E4B984770E07B695B8B9BB2002BE8
:1006C00039D07B699B8B9BB2002B34D17B6925226F
:1006D0009B5CDBB2052B2ED17B6924229B5CDBB2B9
:1006E000002B28D13B6903221A757B6900225A83AB
:1006F0007B692522002199547B699B7A002B0BD0C2
:100700007B6918006A4B98473B695B68C02292027C
:100710001A433B695A6002E03B6901221A760E23B4
:10072000FB181B780122134037D07B69DB687A699C
:100730001000984731E07B695B8B9BB2002B2CD07B
:100740007B699B8B9BB2002B27D03B695B8B9BB259
:100750001A002023134011D10F23FB181B7801220C
:100760005340DBB2002B04D17B699B8B9BB2012BE6
:1007700004D07B692522412199540EE07B69242213
:100780009B5CDBB2002B04D17B691800494B984776
:1007900003E07B691800484B98477B695B8B9BB2F1
:1007A000002B47D07B699B8B9BB2002B42D17B698E
:1007B00025229B5CDBB2052B3CD17B6924229B5C10
:1007C000DBB2012B36D13B691B7EDBB21A00022360
:1007D000134002D03B6902221A763B6903221A7544
:1007E0007B6900225A837B692522002199540E23BC
:1007F000FB181B78022213400BD07B6924229B5CE0
:10080000DBB2012B05D17B691B697A69100098471F
:1008100010E00E23FB181B78012213400AD07B69DD
:1008200024229B5CDBB2002B04D17B69DB687A69F4
:10083000100098477B6925229B5CDBB2052B2ED0EC
:100840007B6925229B5CDBB2002B28D03B6903220D
:100850001A757B6900225A837B6900229A837B691F
:1008600025229B5CDBB2412B0ED07B699B7A002B4F
:100870000AD07B6918000E4B98473B695B68E02201
:10088000D2021A433B695A600E23FB181B780422DC
:10089000134004D07B695B697A6910009847C046B1
:1008A000BD4606B080BDC046DC4F0020C902000036
:1008B000390100004D0200005D01000080B500AF6D
:1008C000BFF34F8F024B034ADA60BFF34F8FFEE74F
:1008D00000ED00E00400FA0580B500AF024B984738
:1008E000C046BD4680BDC046BD08000080B588B08A
:1008F00000AF78608E4B18008E4B98478E4B1800D7
:100900008C4B98478D4B18008A4B98478C4B18009E
:10091000884B98478B4B1800864B98471F23FB1832
:1009200000221A70884B1800884B98471023FB1838
:100930001800874B98470300BB61BB69013303D1A3
:100940009620844B9847F1E71023FB181B780A2B5D
:1009500004D01023FB181B780D2B31D17E4B1800CF
:100960007A4B98477D4B00221A707D4B00221A70FB
:100970007C497D4B312218007C4B98477A4B3122C1
:10098000002199547A49774B64221800794B984793
:1009900003007B61764B632200219954744B18004D
:1009A0006A4B98477B69002BECD11F23FB18002270
:1009B0001A706C4B3222002118006F4B9847B6E03A
:1009C000664B1B78002B59D0654B1B78032B0CD83A
:1009D000634B1B785A1CD1B2614A11701A00102364
:1009E000FB181978654B995405E05C4B00221A708E
:1009F0005B4B00221A705A4B1B78012B96D9604A28
:100A00005E4B110018005F4B9847031E2FD05E49C4
:100A1000544B1B2218005D4B9847524B18004B4B10
:100A200098471F23FB1800221A704E4B32220021D8
:100A30001800514B98474C494A4B312218004B4BF8
:100A40009847484B1800524B98470300302B06D864
:100A5000454B18004E4B98470300DAB200E03122B4
:100A60001F23FB181A703F4B1800384B98473B4B1D
:100A700000221A703A4B00221A7057E71023FB1815
:100A80001B780D2B00D151E71023FB181B78082B86
:100A900004D01023FB181B787F2B1CD10C23FB18D0
:100AA0003C4A12681A600C23FB181800274B984721
:100AB0001F23FB181B78002B38D01F23FB181A7834
:100AC0001F23FB18013A1A701F23FB181B78254AB5
:100AD0000021D1542AE01023FB181B781B2B06D1D0
:100AE0001E4B01221A701E4B00221A701EE71F2394
:100AF000FB181B78312B0FD81F23FB181B781022F3
:100B0000BA18127851B2174AD1541F23FB181A7819
:100B10001F23FB1801321A701023FB1800225A7091
:100B20001023FB181800094B9847FFE6C046FDE666
:100B300040F10000AD36000080F1000050F10000EF
:100B400060F1000070F1000014EF00000994000053
:100B5000A5940000657800007CF0000040020020B1
:100B6000410200207802002044020020DDE600005F
:100B7000AC0200201D37000043E4000010030020F9
:100B800080F0000071E6000084F000002DE6000017
:100B9000ADE600008CF00000B0B588B002AFF860A0
:100BA000B9607A602E4B984702001723FB18190092
:100BB00010002C4B98471723FB181B78002B43D0B1
:100BC000294B062200211800284B9847244B9847B0
:100BD0000200254B19001000254B9847224B00229C
:100BE0009B5E1800234B9847021C234B1A601E4B38
:100BF00002229B5E18001F4B9847021C1E4B5A6036
:100C0000194B04229B5E18001A4B9847021C1A4B82
:100C10009A60194B1A68194B101C98470500164B1F
:100C20005A68164B101C98470400134B9A68134BD4
:100C3000101C98470300124AB968F86801930094A1
:100C40002B00104CA04705E00F4AB968FB6818005C
:100C50000C4B984700231800BD4606B0B0BDC046F7
:100C6000091D0000D51A00001403002043E4000011
:100C7000111B0000751800001C03002021CA000091
:100C800090F00000C9E50000B4F0000090B587B016
:100C900000AFF860B9607A601723FB181B221A7046
:100CA0001723FB181B78084A08480F21084CA04757
:100CB000064AB968FB681800054B984700231800DE
:100CC000BD4607B090BDC046C8F00000300200200D
:100CD000C9E5000080B584B000AFF860B9607A6003
:100CE000034B984700231800BD4604B080BDC046A2
:100CF000D9080000F0B58BB004AFF860B9607A6035
:100D00004E4A7B68012118004D4B984702004D4B1D
:100D10001A604D4A7B6802211800494B984702002F
:100D20004A4B1A604A4A7B6803211800444B984793
:100D30000200484B1A60484A7B6804211800404B67
:100D400098470200454B1A603E4B1A683B4B1B68A4
:100D5000D31800221A703D4B1A683B4B1B68D318FE
:100D600000221A703B4B1A68394B1B68D3180022BB
:100D70001A703A4B1A68384B1B68D31800221A7045
:100D8000304B1B681800364B984702001723FB189E
:100D90001A702E4B1B681800314B9847020016231F
:100DA000FB181A702B4B1B6818002D4B984702003C
:100DB0001523FB181A70294B1B681800284B9847FD
:100DC00002001423FB181A701423FB181C78152337
:100DD000FB181A781623FB1819781723FB181878B4
:100DE0002300204CA04703003B613B69002B07D048
:100DF0001D4AB968FB6818001C4B9847002319E08E
:100E00001B4B98471723FB181E781623FB181B78DB
:100E10001522BA181278142179180978154DBC6872
:100E2000F86802910192009333002A0021000F4CD0
:100E3000A04700231800BD4607B0F0BD28030020DE
:100E4000453800002C03002030030020340300202C
:100E5000380300203C03002040030020440300200E
:100E6000C9E30000A1290000D0F00000C9E500009E
:100E7000752A0000E0F0000090B58BB002AFF8607A
:100E8000B9607A600023FB61494A7B680121180040
:100E9000484B98470200484B1A60484A7B68022139
:100EA0001800444B98470200454B1A60454A7B683E
:100EB000032118003F4B98470200434B1A60434AF6
:100EC0007B68042118003B4B98470200404B1A6096
:100ED000394B1A68364B1B68D31800221A70384BEE
:100EE0001A68364B1B68D31800221A70364B1A68E2
:100EF000344B1B68D31800221A70354B1A68334BD9
:100F00001B68D31800221A702B4B1B681800314B3A
:100F1000984702001B23FB181A70294B1B68180006
:100F20002C4B984702001A23FB181A70264B1B689B
:100F30001800284B984702001923FB181A70244BFD
:100F40001B681800234B984702001823FB181A70DF
:100F50001723FB1800221A701823FB181C7819237A
:100F6000FB181A781A23FB1819781B23FB1818781A
:100F7000002300932300184CA047184B9847030008
:100F8000FB61FB69002B07D0154AB968FB681800A4
:100F9000144B9847002306E0134AB968FB68180011
:100FA000104B984700231800BD4609B090BDC046BD
:100FB00048030020453800004C0300205003002067
:100FC00054030020580300205C030020600300202D
:100FD00064030020C9E300007D210000812000009F
:100FE00004F10000C9E5000024F1000080B582B0E2
:100FF00000AF0200FB1D1A70064BFA1D127811009B
:101000001F220A40012191400A001A60C046BD46D5
:1010100002B080BD00E100E080B584B000AF786030
:101020007B681B68FB60FB68DB69072213405A1E64
:101030009341DBB21800BD4604B080BD80B582B0DC
:1010400000AF7860C0467B681800044B9847031EC9
:10105000F9D1C046BD4602B080BDC046191000009F
:1010600080B582B000AF78607B6864221A607B68CC
:101070001B4A5A607B6800229A607B6800221A73C0
:101080007B6800221A767B68802292031A617B6853
:1010900001225242DA827B68012252429A827B68A4
:1010A0000022DA617B6800221A627B682422002118
:1010B00099547B6800229A627B682C220021995403
:1010C0007B682D22002199547B682E22002199549F
:1010D0007B68D7221A86C046BD4602B080BDC04696
:1010E000480D000080B584B000AF78607B681B6855
:1010F000BB600023FB607B681800144B9847BB68FB
:101100001B6802221A43BB681A607B681B681800C0
:101110000F4B9847030018000E4B98470CE0FB68F4
:101120000133FB607B68DB881A00FB689A4203D8B6
:10113000BB6810225A8306E0BB685B8B9BB21A0027
:1011400010231340EBD0BD4604B080BD3D1000001D
:1011500005A30000ED0F000080B582B000AF7860FD
:101160000A00FB1C1A707B685B7EDBB25AB2FB1C68
:101170001B78012199400B005BB213435BB2DAB2DA
:101180007B685A76C046BD4602B080BD90B591B02E
:1011900000AF0023FB633A23FB1800221A703B1DAB
:1011A0001800214B98473B1D204ADA613B1D204A1D
:1011B0001A623B1DFA229200DA823B23FB180322BB
:1011C0001A701EE03A23FC183A1D1A491A4B1800EF
:1011D0001A4B9847030023703A23FB181B78002B07
:1011E00004D13A23FB181B78FB630FE0124B180065
:1011F000134B98473B23FB181A783B23FB18013A03
:101200001A703B23FB181B78002BDBD1FB6B002BE8
:1012100004D1094B18000B4B984700E0C046FB6B0C
:101220001800BD4611B090BD61100000020008001A
:101230000200090000080042543A00200D3300006B
:1012400041340000E510000080B584B000AF786044
:101250000E4B00221A700D4B01229A600023FB6096
:101260000B4B1B680C22BA1811001800094B984749
:10127000094B00221A70FB68002B03D0074B802219
:1012800052051A60C046BD4604B080BD6C03002004
:101290007C3A0020956400006803002004ED00E023
:1012A00080B584B000AF78600E4B00221A700D4BF1
:1012B00001229A600023FB600B4B1B680C22BA18BA
:1012C00011001800094B9847094B00221A70FB685F
:1012D000002B03D0074B802252051A60C046BD4642
:1012E00004B080BD6C0300207C3A002095640000AF
:1012F0006803002004ED00E080B584B000AF7860A2
:101300000E4B00221A700D4B01225A600023FB6025
:101310000B4B1B680C22BA1811001800094B984798
:10132000094B00221A70FB68002B03D0074B802268
:1013300052051A60C046BD4604B080BD6C03002053
:101340007C3A0020956400006803002004ED00E072
:1013500080B500AF1149124B00221800114B98477D
:101360000F4B00211800104B984710490C4B0122DD
:1013700018000C4B98470A4B012118000A4B98475C
:101380000B49074B02221800064B9847044B0221D9
:101390001800054B9847C046BD4680BD4912000065
:1013A000543A00208503000059110000A1120000EA
:1013B000F912000080B582B000AF00237B60144BAF
:1013C000984703007B607B68002B1AD1114B98472C
:1013D0000120114B98470200104B1A600322002194
:1013E00001200F4B984702000E4B1A600B4B1B68F5
:1013F000002B03D00B4B1B68002B03D106237B6013
:1014000000E0C0467B681800BD4602B080BDC04603
:101410008D11000051130000CD5D0000503A0020F6
:10142000655B00007C3A002090B589B000AF786021
:101430000023FB610023BB6100237B6100233B6130
:101440007B68002B03D07B685B68002B03D10823EB
:101450005B42FB611FE07B681B789AB2104B1A80DD
:101460007B685A680E4B5A607B68DA890C4B5A804D
:101470000F23FC180A4A0B4B110018000A4B98471F
:10148000030023700F23FB181B78002B03D00623C7
:101490005B42FB61C046FB691800BD4609B090BDC8
:1014A000803A0020543A00200906000090B589B027
:1014B00000AF78600023FB610023BB6100237B61E8
:1014C00000233B617B68002B03D07B685B68002BAB
:1014D00003D108235B42FB611FE07B681B789AB253
:1014E000104B1A807B689A680E4B5A607B689A8909
:1014F0000C4B5A800F23FC180A4A0B4B11001800A2
:101500000A4B9847030023700F23FB181B78002B0E
:1015100003D006235B42FB61C046FB691800BD4651
:1015200009B090BD803A0020543A00202505000003
:1015300090B583B000AF00237B60094B186800238F
:1015400000220021074CA0470300012B02D01423E6
:101550005B427B607B681800BD4603B090BDC0460F
:10156000503A00200D5E000080B584B000AF786076
:101570000023FB60084B1B687A6811001800074BBA
:1015800098470300012B02D01D235B42FB60FB68E0
:101590001800BD4604B080BD503A00201D6B00000D
:1015A00080B584B000AF78600023FB60044B1A68FC
:1015B0007B681A60FB681800BD4604B080BDC04659
:1015C0007C3A002080B500AF024B1B781800BD4666
:1015D00080BDC0466803002080B582B000AF020025
:1015E000FB1D1A70034BFA1D12781A70C046BD46D7
:1015F00002B080BD6803002080B584B000AF786081
:1016000039600023FB600023BB600023FB603B6864
:101610001800264B98470300FB60FB68002B36D16F
:101620000823FB181800224B98470300FB60FB6857
:10163000002B2ED17B6818001E4B98470300FB60DF
:10164000FB68002B28D1BB683A68110018001A4BC0
:1016500098470300012B11D1184B9847031E11D056
:101660000020174B9847FB68002B03D021235B42D7
:10167000FB6012E003235B42FB600EE003235B424E
:10168000FB600AE00F4B98470300FB6002E0C04696
:1016900000E0C046FB6805E0C0460A4B98470300DF
:1016A000FB60FB681800BD4604B080BD69150000F2
:1016B000A1150000291400001D6B0000C5150000D5
:1016C000D91500003115000080B586B000AFF86074
:1016D000B9607A6000237B6100233B6100237B615A
:1016E0007B681800384B984703007B617B69002BAF
:1016F0005BD11023FB181800344B984703007B6123
:101700007B69002B53D1FB681800314B98470300CD
:101710007B617B69002B4DD13B697A681100180011
:101720002C4B98470300012B11D12B4B9847031EDC
:1017300011D00020294B98477B69002B03D021232F
:101740005B427B6137E003235B427B6133E0032331
:101750005B427B612FE0FB681800214B9847030038
:101760007B613B697A68110018001A4B98470300A7
:10177000012B11D1184B9847031E11D00020174B95
:1017800098477B69002B03D021235B427B6112E0E9
:1017900003235B427B610EE003235B427B610AE033
:1017A000104B984703007B6102E0C04600E0C04652
:1017B0007B6905E0C0460B4B984703007B617B6962
:1017C0001800BD4606B080BD69150000A1150000D7
:1017D000291400001D6B0000C5150000D91500007C
:1017E000AD14000031150000B0B586B000AFF86050
:1017F00008007A6019000B23FB18021C1A700823DA
:10180000FB180A1C1A80FB685C68FB689868082350
:10181000FB181D887A680B23FB1819782B00A0474A
:1018200003007B617B691800BD4606B0B0BDB0B552
:1018300086B000AFF86008007A6019000B23FB182F
:10184000021C1A700823FB180A1C1A80FB681C680B
:10185000FB6898680823FB181D887A680B23FB181F
:1018600019782B00A04703007B617B691800BD46F7
:1018700006B0B0BD80B582B000AF0200BB1D1A80BB
:10188000BB1D00229A5E094B10009847021C084BB2
:101890000849101C9847031C1A1C074B0749101CC9
:1018A0009847031C181CBD4602B080BD61CA0000E9
:1018B000E1C700000000744251C5000000007A44F6
:1018C00090B585B000AF78600A00FB1C1A70082341
:1018D000FA18786801231021124CA0470300FB601E
:1018E000FB68002B19D1FB1C1B7803221340DAB2D2
:1018F0000823FB1803210A4090001A780C218A4320
:10190000111C021C0A431A700823FA187868012374
:101910001021054CA0470300FB60FB681800BD4682
:1019200005B090BDE91700002F18000090B585B0F4
:1019300000AF78600A00FB1C1A700823FA18786858
:1019400001231021114CA0470300FB60FB68002B12
:1019500017D1FB1C1B780F221340DAB20823FB18A7
:1019600010011A780F210A40111C021C0A431A7038
:101970000823FA18786801231021054CA0470300BA
:10198000FB60FB681800BD4605B090BDE91700007C
:101990002F18000090B585B000AF78600A00FB1CDE
:1019A0001A700823FA18786801231121124CA047F5
:1019B0000300FB60FB68002B19D1FB1C1B7807227E
:1019C0001340DAB20823FB1807210A4090181A784E
:1019D0000E218A43111C021C0A431A700823FA18AC
:1019E000786801231121054CA0470300FB60FB68C8
:1019F0001800BD4605B090BDE91700002F18000083
:101A000090B585B000AF78600A00FB1C1A700823FF
:101A1000FA18786801231121114CA0470300FB60DC
:101A2000FB68002B17D1FB1C1B780F221340DAB286
:101A30000823FB1810011A780F210A40111C021C00
:101A40000A431A700823FA18786801231121054CFB
:101A5000A0470300FB60FB681800BD4605B090BDC1
:101A6000E91700002F18000090B585B000AF78602E
:101A70000A00FB1C1A700823FA1878680123122147
:101A8000124CA0470300FB60FB68002B19D1FB1C24
:101A90001B7801221340DAB20823FB1801210A4007
:101AA00090011A7840218A43111C021C0A431A70C3
:101AB0000823FA18786801231221054CA047030077
:101AC000FB60FB681800BD4605B090BDE91700003B
:101AD0002F18000090B585B000AF786039600823FA
:101AE000FA18786801231E21084CA0470300FB6008
:101AF0000823FB181B78DB07DB0FDBB21A003B68FF
:101B00001A70FB681800BD4605B090BDE9170000CB
:101B100090B585B000AF786039603A687868062380
:101B20002821044CA0470300FB60FB681800BD4659
:101B300005B090BDE917000090B585B000AF7860A2
:101B400039603A68786801230F21044CA0470300EC
:101B5000FB60FB681800BD4605B090BDE9170000AA
:101B600090B585B000AF78600A00FB1C1A7008239E
:101B7000FA18786801231221124CA0470300FB6079
:101B8000FB68002B19D1FB1C1B7801221340DAB231
:101B90000823FB1801210A4010001A7801218A430A
:101BA000111C021C0A431A700823FA1878680123D2
:101BB0001221054CA0470300FB60FB681800BD46DE
:101BC00005B090BDE91700002F18000090B585B052
:101BD00000AF786039600823FA1878680123122171
:101BE000084CA0470300FB600823FB181B78DB07A9
:101BF000DB0FDBB21A003B681A70FB681800BD46A9
:101C000005B090BDE917000080B586B000AFF86060
:101C100008007A6019000B23FB18021C1A700823B5
:101C2000FB180A1C1A8000237B61134B6A221A706E
:101C3000124B0B22BA1812781A7011480823FB189D
:101C40001A887B6819000F4B98470823FB181B88DC
:101C500001339AB2084BDA81074B084A5A60064BA7
:101C600064211800084B984703007B617B691800CA
:101C7000BD4606B080BDC046CC3A00208C3A00205C
:101C80008D3A002031E40000F915000080B586B0DF
:101C900000AFF86008007A6019000B23FB18021CE3
:101CA0001A700823FB180A1C1A8000237B61134B4F
:101CB0006A221A70124B0B22BA1812781A70104B43
:101CC00000225A700D4B0122DA810C4B0C4A5A60EB
:101CD0000A4B0822BA1812889A81084B7A689A60CF
:101CE000064B642205211800064B984703007B61D0
:101CF0007B691800BD4606B080BDC046CC3A0020C6
:101D00008C3A0020C916000080B500AF014B1800C6
:101D1000BD4680BD0000002080B582B000AF00232A
:101D20007B60234B01211800224B984703007B6006
:101D3000FA1C1F4B110018001F4B984702007B68CC
:101D400013437B60FB1C1B78002BF1D1184B012146
:101D500018001A4B984702007B6813437B60144BB2
:101D600000211800164B984702007B6813437B60E4
:101D70000F4B06211800134B984702007B68134352
:101D80007B600B4B012118000F4B984702007B68CA
:101D900013437B60064B012118000C4B984702004F
:101DA0007B6813437B607B681800BD4602B080BD32
:101DB00000000020611B0000CD1B0000691A00001C
:101DC000C1180000951900002D190000011A00002B
:101DD00080B582B000AF00203B4B984701203B4BC1
:101DE000984700203A4B984700210020394B9847EC
:101DF000AE20394B984703007B607B68002B04D0F2
:101E0000364B1800364B984703E0364B1800344BDE
:101E10009847D520304B984703007B607B68002BA8
:101E200004D0314B18002E4B984703E02F4B18007D
:101E30002B4B98478020284B9847A820264B984743
:101E40002F20254B9847D320234B98470020224B27
:101E500098474020204B98478D201F4B98471420CF
:101E60001D4B9847A6201C4B9847A4201A4B984717
:101E7000A120194B9847C820174B9847DA20164BDA
:101E800098471220144B98478120134B98478F2076
:101E9000114B9847D920104B9847F1200E4B98478B
:101EA000DB200D4B984740200B4B9847AF200A4B47
:101EB000984701200E4B984703007B607B68180011
:101EC000BD4602B080BDC046D1250000AD26000051
:101ED0007D2500009D250000F51E0000C8000100C2
:101EE00009940000E4000100F80001001C01010059
:101EF000A51F000080B584B000AF0200FB1D1A7062
:101F00000823FB1800221A700823FB18FA1D127808
:101F10005A700C4B3D221A700A4B0822BA185A60AC
:101F2000084B0222DA81074B00229A81054B64217B
:101F30001800054B98470300FB60FB681800BD467E
:101F400004B080BDDC3A0020F915000080B584B0F3
:101F500000AF0200FB1D1A700823FB1840221A7004
:101F60000823FB18FA1D12785A700C4B3D221A7088
:101F70000A4B0822BA185A60084B0222DA81074B32
:101F800000229A81054B64211800054B98470300F5
:101F9000FB60FB681800BD4604B080BDDC3A002041
:101FA000F915000080B5A6B000AF0200FB1D1A7045
:101FB00000239422BA181360FB1D1B78012B43D118
:101FC00000239022BA18136038E09023FB181B6896
:101FD000DBB21800244B98470020244B98470C2371
:101FE000FB18802200211800214B984700238C22E7
:101FF000BA18136016E000201E4B98470300942285
:10200000BA1813609423FB181B68002B03D0942389
:10201000FB181B6824E08C23FB181B6801338C22FF
:10202000BA1813608C23FB181B687F2BE3DD902309
:10203000FB181B6801339022BA1813609023FB1819
:102040001B68072BC1DD08E0C0235A000A4B0021A2
:102050001800074B9847094B98479423FB181B68B7
:102060001800BD4626B080BD0D2100003D210000B6
:1020700043E400004D1F0000800300208120000089
:1020800080B582B000AF00233B60FB1D00221A70B8
:102090002BE0FB1D1B781800184B98470020184BAD
:1020A0009847BB1D00221A7016E0FB1D1B789A0191
:1020B000BB1D1B78D318134AD35C1800124B9847EA
:1020C00003003B603B68002B01D03B6812E0BB1D66
:1020D0001A78BB1D01321A70BB1D1B783F2BE4D947
:1020E000FB1D1A78FB1D01321A70FB1D1B78052B96
:1020F000CFD93B681800BD4602B080BD0D2100005D
:102100003D210000800300204D1F000080B582B0FB
:1021100000AF0200FB1D1A70FB1DFA1D1278502142
:1021200049420A431A70FB1D1B781800024B98475E
:10213000C046BD4602B080BDF51E000080B582B02D
:1021400000AF0200FB1D1A70FB1D1B781B09DBB2E0
:1021500010221343DBB20233DBB21800064B984760
:10216000FB1D1B780F221340DBB21800024B98476F
:10217000C046BD4602B080BDF51E0000B0B584B0BB
:1021800000AF05000C0010001900FB1D2A1C1A707E
:10219000BB1D221C1A707B1D021C1A703B1D0A1CE1
:1021A0001A707B1D1B780122D31ADAB20F23FB1899
:1021B0001A700E23FB1801221A707B1D1B781A1C43
:1021C000D201D31ADB18DAB20D23FB181A700C23D4
:1021D000FB1800221A700B23FB187A1D12781A7054
:1021E000BA1D7B1D12781B78D318D9B22023FB1897
:1021F0001C783B1D1A78FB1D18782300984CA047CB
:10220000BA1D7B1D12781B78D31AD9B22023FB1874
:102210001C783B1D1A78FB1D18782300904CA047B2
:10222000FA1D7B1D12781B78D318D8B22023FB1817
:102230001C783B1D1A78BB1D19782300884CA047D9
:10224000FA1D7B1D12781B78D31AD8B22023FB18F5
:102250001C783B1D1A78BB1D19782300804CA047C1
:10226000EEE00F23FB181B787F2B1CD80B23FB18E9
:102270001B785BB2DBB2013BDAB20B23FB181A709E
:102280000D23FB181B780233DAB20D23FB181A70EA
:102290000F23FB181A780D23FB181B78D318DAB21A
:1022A0000F23FB181A700C23FB181B785BB2DBB2F0
:1022B0000133DAB20C23FB181A700E23FB181B78BB
:1022C0000233DAB20E23FB181A700F23FB181A78A8
:1022D0000E23FB181B78D318DAB20F23FB181A70E1
:1022E0000C23FB181A78FB1D1B78D318D8B20B23CC
:1022F000FB181A78BB1D1B78D318D9B22023FB1802
:102300001C783B1D1A782300554CA0470C23FB1862
:102310001B78FA1D1278D31AD8B20B23FB181A783F
:10232000BB1D1B78D318D9B22023FB181C783B1D8A
:102330001A7823004A4CA0470C23FB181A78FB1D7F
:102340001B78D318D8B20B23FB181B78BA1D127850
:10235000D31AD9B22023FB181C783B1D1A7823000E
:102360003F4CA0470C23FB181B78FA1D1278D31A98
:10237000D8B20B23FB181B78BA1D1278D31AD9B226
:102380002023FB181C783B1D1A782300344CA047EF
:102390000B23FB181A78FB1D1B78D318D8B20C231B
:1023A000FB181A78BB1D1B78D318D9B22023FB1851
:1023B0001C783B1D1A782300294CA0470B23FB18DF
:1023C0001B78FA1D1278D31AD8B20C23FB181A788E
:1023D000BB1D1B78D318D9B22023FB181C783B1DDA
:1023E0001A7823001E4CA0470B23FB181A78FB1DFC
:1023F0001B78D318D8B20C23FB181B78BA1D12789F
:10240000D31AD9B22023FB181C783B1D1A7823005D
:10241000134CA0470B23FB181B78FA1D1278D31A14
:10242000D8B20C23FB181B78BA1D1278D31AD9B274
:102430002023FB181C783B1D1A782300084CA0476A
:102440000C23FA180B23FB18127852B21B785BB2DC
:102450009A4200DA05E7C046BD4604B0B0BDC046AA
:1024600065240000B0B582B000AF05000C0010007C
:102470001900FB1D2A1C1A70BB1D221C1A707B1D23
:10248000021C1A703B1D0A1C1A70FB1D1B783F2B87
:102490006ED8BB1D1B782F2B6AD83B1D1B78012BD8
:1024A00022D17B1D1B78012B63D1FB1D1A78BB1D2C
:1024B0001B78DB08D8B203009B01D318FA1D1178F2
:1024C000020092018A182C498A5C51B2BA1D127816
:1024D0000720024001209040020052B24A4052B20E
:1024E000D1B2254AD15444E07B1D1B78012B1ED16B
:1024F000FB1D1A78BB1D1B78DB08D8B203009B01BB
:10250000D318FA1D1178020092018A181A498A5CC0
:1025100051B2BA1D127807200240012090400200FB
:1025200052B20A4352B2D1B2134AD15421E0FB1D38
:102530001A78BB1D1B78DB08D8B203009B01D318A7
:10254000FA1D1178020092018A180B498A5C52B276
:10255000B91D09780720014001208840010049B2D7
:10256000C94349B20A4052B2D1B2034AD15400E041
:10257000C046BD4602B0B0BD8003002080B582B029
:1025800000AF0200FB1D1A70034BFA1D12781A707F
:10259000C046BD4602B080BD4D3A002080B582B035
:1025A00000AF0200FB1D1A70BB1D0A1C1A70064BFF
:1025B000FA1D12781A70054BBA1D12781A70C046AF
:1025C000BD4602B080BDC046443A0020493A0020D2
:1025D00080B582B000AF0200FB1D1A70FB1D1B7896
:1025E000042B06D8FB1D1A78294B9200D358002BD8
:1025F00001D1002348E0274BFA1D12781A70254BB1
:102600001B781A00224B9200D3581B68DAB2224B77
:102610001A70204B1B781A001D4B9200D3580433BC
:102620001B68DAB21D4B1A701A4B1B781A00184B34
:102630009200D35808331B68DAB2194B1A70154B45
:102640001B781A00124B9200D3580C331B68DAB275
:10265000144B1A700F4B1B781A000D4B9200D35875
:1026600010331B689BB2642253439AB2094B1B7808
:102670001900074B8900CB5814331B689BB2D31841
:102680009AB2094B1A8001231800BD4602B080BDE2
:102690000C000020413A0020433A0020423A00203A
:1026A000403A00204E3A0020463A002080B582B0E1
:1026B00000AF0200FB1D1A70034BFA1D12781A704E
:1026C000C046BD4602B080BD483A002080B582B009
:1026D00000AF394B2E221A70374B384A5A60364BAE
:1026E0000222DA81344B3A009A60334B01229A81FC
:1026F000314B642200211800314B984703007B6066
:102700007B68002B04D02F4B18002F4B98470DE00F
:102710003B001B78552B05D02C4B18002A4B9847B3
:10272000012344E02A4B1800274B9847224B294AA3
:102730005A60214B0322DA811F4B64211800264B7B
:10274000984703007B607B68002B03D0234B180065
:102750001D4B9847184B224A5A60174B0322DA81C7
:10276000154B642118001C4B984703007B607B6865
:10277000002B03D01B4B1800134B98470E4B1A4AE3
:102780005A600D4B0422DA810B4B64211800124B66
:10279000984703007B607B68002B03D0134B180025
:1027A000094B9847124B9847124B98477B68180083
:1027B000BD4602B080BDC046EC3A002030010100A9
:1027C000C9160000480101000994000068010100D9
:1027D0007001010034010100F915000080010100C1
:1027E00038010100A00101003C010100CC01010001
:1027F000A52B0000B52A000080B582B000AFFB1CFD
:1028000000221A70114B2E221A70104B104A5A6077
:102810000E4B0222DA810D4BFA1C9A600B4B0122FF
:102820009A810A4B6422002118000A4B9847030042
:102830007B607B68002B03D0074B1800074B984741
:10284000FB1C1B781800BD4602B080BDEC3A00208E
:1028500044010100C91600000002010009940000B3
:1028600080B584B000AF78600A00FB1C1A700823A2
:10287000FB18144A12881A80134B2E221A70124B1E
:102880000822BA185A60104B0222DA810E4B7A687D
:102890009A60FB1C1B789AB20B4B9A810A4B6422FC
:1028A00000211800094B98470300FB60FB68002BD0
:1028B00003D0074B1800074B9847FB681800BD462C
:1028C00004B080BD24020100EC3A0020C9160000CB
:1028D000000201000994000090B587B000AF040029
:1028E00008001100FB1D221C1A70BB1D021C1A706F
:1028F0007B1D0A1C1A701023FB187A1D1278012107
:10290000100008401A7801218A43111C021C0A4356
:102910001A70BB1D1B7801229A401300DBB21A1CEF
:102920000F231340DAB21023FB180F210A4090182E
:102930001A781E218A43111C021C0A431A700C23A8
:10294000FB1810221A700C23FB1801225A700C235A
:10295000FB18FA1D12789A701023FB181A780C23B2
:10296000FB18DA700C4B2E221A700B4B0C22BA1883
:102970005A60094B0422DA81074B00229A81064BE8
:1029800064211800054B984703007B617B691800A0
:10299000BD4607B090BDC046EC3A0020F9150000D6
:1029A000B0B588B000AF05000C0010001900FB1D89
:1029B0002A1C1A70BB1D221C1A707B1D021C1A7067
:1029C0003B1D0A1C1A701023FB180E221A701023CC
:1029D000FB1804225A701023FB1800229A7010234F
:1029E000FB180022DA701023FB187A1D12781A7176
:1029F0001023FB18BA1D12785A711023FB183A1DC8
:102A000012789A710C23FB18174A12881A80FB1D42
:102A10001B789BB21E22BA18191C0B1CDB185B1802
:102A200013801E23FB181B881B0A9BB2DAB21023EB
:102A3000FB189A701E23FB181B88DAB21023FB18B0
:102A4000DA700A4B1022BA185A60084B0722DA8152
:102A5000064B64211800064B98470300BB61BB6915
:102A60001800BD4608B0B0BD28020100EC3A0020B5
:102A7000F915000080B582B000AF3B000A4A128809
:102A80001A800A4B3A005A60084B0222DA81074B3F
:102A900064211800064B984703007B607B68180090
:102AA000BD4602B080BDC04628020100EC3A0020BD
:102AB000F915000080B582B000AF334B2E221A709A
:102AC000314B324A5A60304B0322DA812E4B0022BE
:102AD0009A812D4B642118002D4B984703003B60D1
:102AE0003B68002B03D02B4B18002B4B984700233F
:102AF0007B6041E07B68002B00DA03339B10DBB284
:102B0000DB00DAB27B6825490B4004D5013B042188
:102B100049420B430133DBB2D318DBB2012203215C
:102B200018001F4B984703003B607B68002B00DABE
:102B300003339B10DBB2DB00DAB27B6817490B4032
:102B400004D5013B042149420B430133DBB2D318C6
:102B5000DBB2012202211800114B984702003B68AA
:102B600013433B603B68002B03D00A4B18000A4B11
:102B700098477B6801337B607B680F2BBADDC046CA
:102B8000BD4602B080BDC046EC3A002040010100C5
:102B9000F91500002C0201000994000003000080D8
:102BA000D9280000B0B500AFFF23FF22FF210F207E
:102BB000094CA047094B9847C8235B001800084BF5
:102BC00098470023002200210F20034CA047034B0D
:102BD0009847C046BD46B0BDA1290000752A000037
:102BE0006578000090B589B000AF78604C4B180054
:102BF0004C4B98474C4B00221A704C4B98470300A3
:102C0000FB611B23FB18FF221A70474B1B78012B1B
:102C100000D17DE0022B00D17CE0002B00D073E0DE
:102C200000233B61424B984703003B613B69002B0B
:102C300006DD3B69DAB23F4B110018003E4B984766
:102C400000237B615BE03B4A7B69D3181B789B08C0
:102C5000DBB2DB08DBB29B00D9B2364A7B69D31802
:102C60001B789B08DBB207221340DAB20F23FB1854
:102C70008A181A702F4A7B69D3181B781A0003230D
:102C80001340032B2DD10F23FB181878FF230022AC
:102C900000212A4CA0472DE0244B98470200FB69F5
:102CA000D31A1B22BA181B217918097811700A2B24
:102CB00017D91E4B98470300FB611B23FB181B22EF
:102CC000BA181278053A1A701B23FB181A780F23CA
:102CD000FB181878130000220021184CA047184B4D
:102CE00098471B23FB181B78002BD5D11B23FB18FF
:102CF000FF221A70124B98477B6901337B617A6916
:102D00003B699A429FDB06E0074B00221A7002E003
:102D1000C04600E0C04632200A4B984775E7C046DF
:102D20005002010009940000063B0020B17C000025
:102D3000F9270000FC3A002061280000A1290000CA
:102D4000752A00006578000080B582B000AF786019
:102D50007B6800221A70C046BD4602B080BD0000EC
:102D600080B582B000AF02003960FB1D1A70FB1DF8
:102D70001B78012B0AD0022B0FD0002B14D10E4B45
:102D80000D4A91693A680A439A610FE00A4B0A4A70
:102D9000D1693A680A43DA6108E0074B064A116ACA
:102DA0003A680A431A6201E0172300E00023180082
:102DB000BD4602B080BDC0460004004080B582B070
:102DC00000AF78607B6880221A707B6800225A709E
:102DD0007B6801229A707B680022DA70C046BD468B
:102DE00002B080BD80B500AF054B9B78DBB21A0006
:102DF000022313405A1E9341DBB21800BD4680BD2A
:102E00000020004180B500AF024B9847C046BD4648
:102E100080BDC0462996000080B500AF024B9847A0
:102E2000C046BD4680BDC0467D96000080B582B0DC
:102E300000AF0200FB1D1A70074AFB1D1B7819002A
:102E40001F230B40012199400B0019008023D15012
:102E5000C046BD4602B080BD00E100E080B584B050
:102E600000AF78607B681B68FB60FB68DB6907224A
:102E700013405A1E9341DBB21800BD4604B080BD1A
:102E800080B582B000AF7860C0467B681800044B04
:102E90009847031EF9D1C046BD4602B080BDC0466A
:102EA0005D2E000080B584B000AF78607B681B6841
:102EB000FB607B681B6818000D4B984703001800E7
:102EC0000C4B98477B6818000B4B9847FB68832294
:102ED0001A75FB6883221A76FB681B6802229343EB
:102EE0001A00FB681A60C046BD4604B080BDC046EB
:102EF00005A300002D2E0000812E0000F0B597B034
:102F000000AF786139610023FB6300233B65002338
:102F1000FB643B2310229446BC44634400221A7095
:102F20007B691B68BB637B691B687B63232310225F
:102F3000BA18D4187B6B1800C04B98470300237055
:102F40000C2310229446BC4463441800BC4B9847A1
:102F50003B69DB697B643B691B6A3B647B6C002BD0
:102F600006D17B6B00211800B64B984703007B64A9
:102F70007B6CDAB20C2310218C46BC4463441A707B
:102F80000C2310229446BC44634402225A707B6C8A
:102F90001B0CDBB20C2210218C46BC446244110095
:102FA0001800A94B98473B6C002B06D17B6B012185
:102FB0001800A44B984703003B643B6CDAB20C2327
:102FC00010218C46BC4463441A700C231022944692
:102FD000BC44634402225A703B6C1B0CDBB20C22D3
:102FE00010218C46BC44624411001800964B98474F
:102FF0003B699A8A7B69DA803B69DA8A7B691A8144
:103000003B691B7E002B03D1904B9847031E02D0D7
:1030100080237B6501E000237B653B691B69002BF6
:1030200004D03B691B697A6D13437B653B699B68E0
:103030007A6D13437B653B6924229B5C002B04D093
:103040007B6D8022D20513437B653B699B6A002B15
:1030500004D03B699B6A7A6D13437B653B692C22E4
:103060009B5C002B05D13B699A6880239B049A42A4
:1030700004D17B6D8022120513437B653B692D22B1
:103080009B5C002B04D07B6D8022120413437B6574
:103090003B692E229B5C002B04D07B6D8022D203E7
:1030A00013437B65BB6B1A687B6D1A43BB6B1A605D
:1030B000BB6B802252005A60232310229446BC44EA
:1030C00063441B781433DBB21800614B984703004C
:1030D000FB623B691B68FA2292005343BB623B6967
:1030E0005B68FA22920053437B623B691B8E3B6212
:1030F000584BF86A984705000E00564BB86A984737
:10310000B860F960534BF86A9847534C534A544B94
:10311000A04703000C003B607C604E4B386A984728
:1031200002000B004C4C38687968A04703000C0083
:10313000180021004B4C00224B4BA04703000C0011
:103140001A002300444CB868F968A04703000C003B
:103150001A002300454C28003100A04703000C0052
:103160001D002600BB6A5A003A4B10009847020027
:103170000B003C4C28003100A04703000C00180055
:1031800021003A4C00223A4BA04703000C001D00DE
:103190002600BB6A5A002F4B1000984702000B0014
:1031A000344C28003100A04703000C001900220015
:1031B000314B0800110098470300FB633B699A6894
:1031C00080239B049A426AD1224BF86A9847254C87
:1031D00002000B00A04703000C001D0026001D4B41
:1031E000786A98471C4C0022244BA04703000C002F
:1031F0001A0023001F4C28003100A04703000C00D8
:1032000018002100194C0022194BA04703000C00A4
:1032100019002200184B0800110098470300FB64B6
:10322000FB6C002B2ED0164B796AF86A9847030086
:103230009A1EFB6CD31A3B6531E0C04635A20000F4
:10324000BD2D000079A0000071BE0000E52D00003A
:1032500035BC00001DE3000089D7000095D626E8A4
:103260000B2E113E01CB00000000244089DC000041
:103270000000F03F21D10000B5E20000000008404E
:10328000E5C300007B6A5A00FB6AD3185A1E7B6AAA
:1032900059001D4B100098470300013B3B65FB6B39
:1032A000FF2B08DCFB6B002B05DB3B6DFF2B02DCEF
:1032B0003B6D002B06DA3B2310229446BC4463444A
:1032C00040221A703B2310229446BC4463441B786E
:1032D000402B0ED0FB6BFF221A403B6D1B041900E4
:1032E000FF231B040B401343FA6C12061A43BB6BFB
:1032F000DA603B2310229446BC4463441B781800D8
:10330000BD4617B0F0BDC046E5C3000090B58BB018
:1033100000AFF860B9607A60FB68BA681A60FB6851
:103320001B687B62FB681B6818003B4B98470300D7
:103330003B623B6A0233FB613B6A1433BB6101228F
:10334000FB699A40130019000220344B984714235C
:10335000FB181800324B98477B681A7B1423FB1824
:103360001A70BB69DBB21422BA18110018002D4B79
:103370009847BB69DBB218002B4B98477B681B7BD7
:1033800000211800294B98477B6A1B6802221340D2
:1033900001D01C233BE07B6A1B680122134001D053
:1033A000052334E0FB681B681722BC1818001A4B71
:1033B0009847030023701E4A1723FB181B7811003F
:1033C00018001C4B98471723FB181A781A4B9200C9
:1033D000F968D150FB6800221A76FB6800225A7601
:1033E000FB6800225A83FB6800229A83FB6825222F
:1033F00000219954FB6800221A627B6A14221A6029
:103400007A68FB68110018000C4B984703001800FD
:10341000BD460BB090BDC04635A20000612D000036
:10342000492D000011BB000055BB0000ED9F0000BE
:103430004906000099A20000DC4F0020FD2E00008C
:1034400080B584B000AF78607B681B68FB607B68E8
:1034500018000F4B98477B6818000E4B98470E4B8F
:1034600098477B681B6818000C4B984703001800AE
:103470000B4B98470B4B98477B681800044B9847B9
:10348000FB6801221A60C046BD4604B080BDC0463C
:10349000812E0000A52E0000052E000005A30000CF
:1034A0008DBC0000192E000080B584B000AF78609C
:1034B0007B681B68FB60FB681B7EDBB21A00022383
:1034C00013400BD0FB6802221A76FB685B8B9BB221
:1034D0001A000223134011D0412310E0FB685B8BDC
:1034E0009BB21A000423134008D0FB685B68C0221B
:1034F00092021A43FB685A60182300E00023180068
:10350000BD4604B080BD80B584B000AF78607B68F4
:103510001B68BB600E23FB1800221A800FE00E23ED
:10352000FB180E22BA18128801321A807B681B8998
:103530000E22BA1812889A4201D312230EE0BB68F9
:103540001B7EDBB21A000123134006D1BB681B7E31
:10355000DBB21A0002231340E1D000231800BD465D
:1035600004B080BD90B585B000AF78600A00FB1C48
:103570001A707B681B68FB60FB685B688022D20264
:103580001A43FB685A60FB1C1A78FB685A620B23CB
:10359000FC187B681800074B984703002370FB68F2
:1035A00001221A760B23FB181B781800BD4605B0C4
:1035B00090BDC0460735000080B500AF0020024B2B
:1035C0009847C046BD4680BDF535000080B500AFC8
:1035D0000120024B9847C046BD4680BDF53500002E
:1035E00080B500AF0220024B9847C046BD4680BD63
:1035F000F535000080B584B000AF0200FB1D1A70E5
:10360000FB1D1A78284B9200D358FB60FB681B689F
:103610009B7BDBB2FA68127E1340DAB2FB68597EFC
:103620000B23FB180A401A700B23FB181B7801228E
:10363000134008D0FB689B68FA6810009847FB6845
:103640001B6801229A730B23FB181B78022213407C
:1036500008D0FB68DB68FA6810009847FB681B68B5
:1036600002229A730B23FB181B781022134008D0F8
:10367000FB681B69FA6810009847FB681B681022FA
:103680009A730B23FB181B782022134008D0FB6889
:103690005B69FA6810009847FB681B6820229A73E0
:1036A000C046BD4604B080BD083B002080B584B054
:1036B00000AF78600023FB607B68002B01D172B6FD
:1036C000FEE70820114B98470300BB60BB68002B46
:1036D00001D172B6FEE7BB68002B12D00C4B9847A5
:1036E000BB687A681A60BB6800225A60094B1B6885
:1036F000BA685A60074BBA681A60074B98470123AB
:10370000FB60FB681800BD4604B080BDB1590000E5
:1037100079580000280000209D58000080B588B02E
:1037200000AFF860B9607A600123FB613D4B1B6814
:10373000002B44D13B4B3C4A1A603AE0394B1B68A2
:103740001B681B68BB61BB691800384B98470300B6
:103750007B61FA687B69D3181B78202B05D0FA6847
:103760007B69D3181B78002B1ED17A69B969FB6875
:1037700018002F4B9847031E16D12A4B1B681B6855
:103780001B7B5BB2002B19DBFB681800294B9847A9
:1037900003001A00234B1B681B681B7B5BB29A4219
:1037A0000CD00023FB6109E01E4B1B685A681D4BBF
:1037B0001A601C4B1B68002BC0D100E0C046194B9F
:1037C0001B68002B0CD0FB69002B09D17A681A49C1
:1037D000BB681800194B9847124B00221A601CE076
:1037E000104B1B68002B10D00E4B1B681B689B688E
:1037F000FA687968B86898470300FB61FB69002B99
:103800000BD1084B00221A6007E07A680C49BB68AC
:1038100018000A4B98470023FB61FB691800BD465E
:1038200008B080BD0005002020000020ADE60000AB
:10383000BBE60000553900009C020100DDE60000F7
:10384000F402010080B586B000AFF860B9607A601C
:1038500000237B6100233B617B6800221A603BE010
:10386000FB680133FB60FB681B78002B07D0FB680B
:103870001B78202BF4D102E0FB680133FB60FB686E
:103880001B78002B03D0FB681B78202BF4D0FB683F
:103890001B78002B25D07B6901337B617A69BB687B
:1038A0009A4219D1FB683B6107E07B681B685A1C90
:1038B0007B681A60FB680133FB60FB681B78002B98
:1038C00003D0FB681B78202BEFD17B681B68002B93
:1038D00009D100233B6106E07A69BB689A42C2D3F2
:1038E00002E0C04600E0C0463B691800BD4606B095
:1038F00080BD000080B586B000AFF860B9607A6026
:10390000114B1B68002B02D10F4B104A1A600E4B53
:103910001B681B685968BA68FB6818000C4B98470D
:10392000094B1B685A68084B1A60074B1B68002B31
:1039300002D100237B6101E001237B617B691800D8
:10394000BD4606B080BDC046040500202000002012
:10395000DDE6000080B584B000AF78600F23FB186F
:1039600000221A700023BB6018E07B681B78202BB4
:103970000FD1BB68012B0ED00F23FB181B785BB255
:10398000DBB20133DAB20F23FB181A700123BB60DC
:1039900001E00023BB607B6801337B607B681B78A0
:1039A000002BE2D1BB68012B09D10F23FB181B7838
:1039B0005BB2DBB2013BDAB20F23FB181A700F23A4
:1039C000FB181B785BB21800BD4604B080BD000038
:1039D00080B582B000AF78607B681800034B9847D1
:1039E00003001800BD4602B080BDC046D56F000080
:1039F00080B582B000AF78607B681800034B9847B1
:103A000003001800BD4602B080BDC0460170000032
:103A100080B582B000AF78607B681800034B984790
:103A200003009BB21800BD4602B080BDE5820000D5
:103A300080B582B000AF78607B681800044B98476F
:103A400003001B0C9BB21800BD4602B080BDC046EF
:103A5000E582000080B582B000AF78600A00BB1C30
:103A60001A807B681800084B984703001B0C1A0447
:103A7000BB1C1B881A437B6811001800034B984736
:103A8000C046BD4602B080BDE58200000D83000047
:103A900080B582B000AF78600A00BB1C1A807B68DA
:103AA0001800094B984703001B041A0CBB1C1B8809
:103AB0001B041A437B6811001800044B9847C0464A
:103AC000BD4602B080BDC046E58200000D83000007
:103AD00080B582B000AF78607B681800034B9847D0
:103AE00003009BB21800BD4602B080BDD139000072
:103AF00080B582B000AF78607B681800044B9847AF
:103B000003001B0C9BB21800BD4602B080BDC0462E
:103B1000D139000080B582B000AF78600A00BB1CCC
:103B20001A807B681800084B984703001B0C1A0486
:103B3000BB1C1B881A437B6811001800034B984775
:103B4000C046BD4602B080BDD1390000E96F00001B
:103B500080B582B000AF78600A00BB1C1A807B6819
:103B60001800094B984703001B041A0CBB1C1B8848
:103B70001B041A437B6811001800044B9847C04689
:103B8000BD4602B080BDC046D1390000E96F0000DB
:103B900080B500AF024B984703001800BD4680BDBA
:103BA000C184000080B582B000AF78600D4B9847AB
:103BB0007B68012B02D10C4B98470EE07B68022BEF
:103BC00004D10A4B18000A4B984706E07B68002B8B
:103BD00003D0084B1800064B9847C046BD4602B0BC
:103BE00080BDC046754A0000ED3F0000540301004F
:103BF000215100009403010080B500AF604B1B68A9
:103C00000922DA655E4B1B6864220A2199545C4BD9
:103C10001B6865220A219954594B1B6866220A21A8
:103C20009954574B1B6867220F219954544B1B68BA
:103C3000682205219954524B1B6869220521995429
:103C40004F4B1B686A22052199544D4B1B686B2210
:103C5000052199544A4B1B686C2205219954484B05
:103C60001B6870220F219954454B1B6871220F214C
:103C70009954434B1B6872220F219954404B1B6887
:103C800073220F2199543E4B1B6874220F219954C3
:103C90003B4B1B6875220F219954394B1B687622C8
:103CA0000F219954364B1B6877220F219954344BBE
:103CB0001B6878220F219954314B1B687C221021FC
:103CC00099542F4B1B687D22102199542C4B1B6853
:103CD0007E22102199542A4B1B687F22132199546C
:103CE000274B1B68802211219954254B1B68812288
:103CF00010219954224B1B68822213219954204B86
:103D00001B688322132199541D4B1B6884221321A5
:103D100099541B4B1B68882200219952184B1B6831
:103D20008A22A0219952164B1B688C22A02149009F
:103D30009952134B1B688E22F02149009952104B67
:103D40001B6890220F4999520D4B1B6892220E4915
:103D500099520B4B1B6894220C499952084B1B68D3
:103D600096220B499952064B1B6898228C21C90058
:103D70009952034B1B68074A1A66C046BD4680BD70
:103D8000C4050020FD02000052030000A203000051
:103D900001040000BF04000080B500AF2E4B0022DC
:103DA0005A822D4B5A8A2C4B1A802B4B0A229A820C
:103DB000294B9A8A284B5A80274B1422DA82264BA9
:103DC000DA8A254B9A80244B1E221A83224B1A8BA7
:103DD000214BDA80204B2D225A831F4B5A8B1E4BCE
:103DE0001A811D4B32229A831B4B9A8B1A4B5A8194
:103DF000194B3722DA83184BDA8B174B9A81164B03
:103E00003C221A84144B1A8C134BDA81124B412238
:103E10005A84114B5A8C104B1A820F4B09229A84E8
:103E20000D4B1322DA840C4B1D221A850A4B2C22CF
:103E30005A85094B31229A85074B3622DA85064B83
:103E40003B221A86044B40225A86034B45229A860F
:103E5000C046BD4680BDC0463405002080B582B056
:103E600000AF0200FB1D1A70FB1D1B78082B16D833
:103E70009A000D4BD3181B689F460C4B10E00C4B5F
:103E80000EE00C4B0CE00C4B0AE00C4B08E00C4B2A
:103E900006E00C4B04E00C4B02E00C4B00E00C4B3A
:103EA0001800BD4602B080BDC8060100C80301006D
:103EB0001004010058040100AC040100F8040100E2
:103EC0004405010090050100E40501003C060100E5
:103ED0009806010090B587B000AF1723FB180022A9
:103EE0001A70364B1B68002B0BD1344B1B68002B10
:103EF00005D1334B1800334B9847002359E000237A
:103F000057E02E4B1B681B6B012B01D1012350E0A6
:103F10002D4B1B68002B49D1EFF31083BB60BB68AE
:103F20003B610123FB60FB6883F31088274B1B6810
:103F30005A1C264B1A60214B1B6801221A63244B22
:103F4000984703001800234B984703001A001723D3
:103F5000FB181A701723FB181B78002B16D1172398
:103F6000FC1803201C4B9847030023701B4A17239F
:103F7000FB181B7819000320194B98471723FB18CF
:103F80001B78002219000320164B98471723FB18B3
:103F90001B781800144B98470C4B1B685A1E0B4B90
:103FA0001A603B697B607B6883F31088034B1B6856
:103FB0001B6B1800BD4607B090BDC046C40500206D
:103FC000EC06010021510000240500201C05002002
:103FD000913B0000113A0000054E0000300701003F
:103FE00035500000954700007D46000080B500AFC9
:103FF000024B9847C046BD4680BDC046D53E000036
:1040000080B500AF084B1B68002B03D0064B1B6824
:1040100000221A63054B1B68002B02D0034B1B6860
:104020009847C046BD4680BDC40500202C05002031
:1040300090B589B000AF0200FB1D1A70FB1D1B7804
:10404000002B57D02E4B1B68002B55D0FB1D1B7827
:104050000F2B04D92B4B18002B4B98474DE02B4BC3
:104060001B68002B04D02A4B1800274B984744E0CC
:10407000EFF31083FB60FB68FB6101233B613B694D
:1040800083F31088214B1B685A1C204B1A60214B6C
:104090001B681B6B002B22D01A23FC181E4B180028
:1040A0001E4B9847030023801923FB18FA1D127832
:1040B0001A701B4B984703007B617B69002B0ED065
:1040C0007B6902221A707B691A22BA1812885A80F8
:1040D0007B691922BA1812785A70124B98470B4B09
:1040E0001B685A1E094B1A60FB69BB60BB6883F3EF
:1040F000108802E0C04600E0C046BD4609B090BD51
:1041000034000020980A0100215100001C05002005
:10411000D80A0100C4050020FFFF00002953000059
:10412000D54C0000D152000080B58EB000AFF860D1
:10413000B9607A60484B1B68002B00D188E07B682F
:10414000002B03DA7B685B427B6301E07B687B6367
:10415000EFF31083BB61BB693B630123FB61FB6928
:1041600083F310883D4B1B685A1C3C4B1A60BB689C
:10417000002B05D03A4B1A687B68D218384B1A606E
:10418000354B1B681B6B002B57D0FF20354B9847D6
:1041900003001A002F23FB181A707B6B324A190098
:1041A0001000324B984702002C23FB181A80304B2A
:1041B00098470300BB62BB6A002B3ED0BB6A2F222C
:1041C000BA1812785A70BB6A00221A70BB6A2C2285
:1041D000BA1812885A80274B9847BB68224A1900A0
:1041E0001000224B984702002623FB181A80252333
:1041F000FB1800221A701E4B984703003B623B6A73
:10420000002B1AD03B6A2622BA1812885A803B6AC1
:104210002522BA1812785A70FB68DBB20133DAB281
:104220003B6A1A70FB68DAB2BB6A1A70114B984786
:10423000094B1B680A4A12681A65084B1B685A1E0C
:10424000064B1A603B6B7B617B6983F3108800E04F
:10425000C046BD460EB080BDC40500201C05002030
:104260003005002029530000FFFF0000F544000046
:10427000D54C0000D152000090B58BB000AFF86073
:104280007A600B23FB180A1C1A70FB68FE2B04D9FA
:10429000394B1800394B98476BE00B23FB181B7800
:1042A000082B04D9364B1800344B984761E0354B46
:1042B0001A680B23FB181B786421D3185B181B7832
:1042C0001A007B689A4204D22F4B18002B4B984758
:1042D0004FE02E4B1B68002B04D02D4B1800274BB2
:1042E000984746E02B4B1B78002B41D0EFF310830F
:1042F0007B617B697B620123BB61BB6983F31088AF
:10430000224B1B685A1C214B1A601E4B1B681B6BEF
:10431000002B22D02223FC181F4B18001F4B98475C
:10432000030023802123FB187A681A701C4B9847DE
:104330000300FB61FB69002B0FD0FB692222BA1836
:1043400012885A80FB68DAB2FB691A70FB69212275
:10435000BA1812785A70134B98470C4B1B685A1EA8
:104360000A4B1A607B6A3B613B6983F3108800E06B
:10437000C046BD460BB090BD480B01002151000066
:10438000800B0100C4050020C80B01001C050020A3
:10439000100C010028050020FFFF00002953000039
:1043A000D54C0000D152000080B58AB000AFF86053
:1043B0007A603B600B23FB180A1C1A70FB68FE2B0B
:1043C00004D9404B1800404B984777E00B23FB186B
:1043D0001B78082B04D93D4B18003B4B98476DE0E8
:1043E0003B4B1A680B23FB181B786421D3185B180E
:1043F0001B781A007B689A4204D2364B1800324B65
:1044000098475BE0344B1B68002B04D0334B1800FB
:104410002D4B984752E0EFF310837B617B697B6201
:104420000123BB61BB6983F310882B4B1B685A1CAB
:10443000294B1A60264B1B681B6B002B34D0284B72
:104440001B78002B30D0FF20264B984703001A0022
:104450002323FB181A703B681900FF20224B984752
:1044600002002223FB181A702123FB187A681A70A5
:104470001E4B98470300FB61FB69002B14D0FB69BE
:104480002322BA181278DA70FB68DAB2FB691A7064
:10449000FB692122BA1812785A70FB692222BA18D5
:1044A00012789A70124B98470B4B1B685A1E0A4B96
:1044B0001A607B6A3B613B6983F31088BD460AB092
:1044C00080BDC046480C010021510000880C01004D
:1044D000C4050020D80C01001C050020280D010097
:1044E0002805002029530000F5440000D54C0000A9
:1044F000D152000080B584B000AF786039607B682D
:10450000FF2B09D07B68194A934205D0184B18003D
:10451000184B98473B6824E03A687B689A4201D878
:104520003B681EE0144B98470300FB60FB68002BC0
:1045300014D0FB6801221A707B68DB433A68134091
:104540001B0ADAB2FB685A707B68DB433A68134097
:104550001B0C9AB2FB685A80084B98473B687A68F4
:1045600013401800BD4604B080BDC046FFFF0000E8
:10457000600D010021510000D54C0000D152000017
:1045800080B58AB000AF786039602623FB1800221E
:104590001A807B68FE2B04D92D4B18002D4B9847B1
:1045A00053E02D4B1B68002B04D02C4B1800294BDB
:1045B00098474AE0EFF310833B613B693B6201237C
:1045C0007B617B6983F31088234B1B685A1C224B49
:1045D0001A60234B1B681B6B002B2CD0214B1B78C4
:1045E000002B28D0FF20204B984703001A001F23E0
:1045F000FB181A703B681D4A190010001C4B9847A5
:1046000002002623FB181A801A4B98470300BB614F
:10461000BB69002B0FD0BB691F22BA1812785A70E1
:104620007B68DAB2BB691A70BB692622BA18128895
:104630005A80114B9847084B1B685A1E064B1A604C
:104640003B6AFB60FB6883F31088BD460AB080BDFF
:104650009C0D0100215100001C050020F40D0100FB
:10466000C40500202805002029530000FFFF00009A
:10467000F5440000D54C0000D152000090B589B03F
:1046800000AF0200FB1D1A70FB1D1B780F2B04D915
:10469000344B1800344B984761E0EFF31083FB6014
:1046A000FB68FB6101233B613B6983F310882F4B5F
:1046B0001B685A1C2D4B1A602D4B1B78FA1D127863
:1046C0009A4242D02B4B1B681B6B002B3DD02A4BD0
:1046D00000221A601A23FC18284B1800284B984710
:1046E00003002380224BFA1D12781A701923FB183D
:1046F0001F4A12781A70234B984703007B617B692D
:10470000002B22D01A4B1B78190003201E4B984710
:104710000300012B03D17B6907221A7002E07B6939
:1047200006221A707B691A22BA1812885A807B698D
:104730001922BA1812785A700D4B1B7801221900F1
:104740000320124B9847124B9847084B1B685A1E80
:10475000064B1A60FB69BB60BB6883F31088BD46DB
:1047600009B090BD2C0E0100215100001C05002055
:1047700028050020C405002008050020FFFF0000D8
:1047800029530000D54C000079490000D5480000AD
:10479000D152000090B583B000AF040008001100B2
:1047A000FB1D221C1A70BB1D021C1A707B1D0A1CEB
:1047B0001A70FB1D1B78082B04D91A4B18001A4BD2
:1047C00098472CE0194B1A68FB1D1B786421D318FD
:1047D0005B181B78BA1D12789A4204D9144B180042
:1047E000114B98471BE0114B1C68FB1D1A78BB1D31
:1047F0001B78110018000F4B9847030018000B4B53
:104800001A68FB1D1B787021D3185B181B78C3181E
:1048100001339C22E3189B187A1D12781A70BD464A
:1048200003B090BDC00F010021510000C40500205D
:104830000C1001002D4D000090B583B000AF0200B8
:10484000FB1D1A70BB1D0A1C1A70FB1D1B78082B60
:1048500005D91B4B18001B4B984700232BE01A4B24
:104860001A68FB1D1B786421D3185B181B78BA1DCE
:1048700012789A4205D9154B1800124B984700231D
:1048800019E0114B1C68FB1D1A78BB1D1B78110029
:1048900018000F4B9847030018000B4B1A68FB1DBC
:1048A0001B787021D3185B181B78C31801339C2226
:1048B000E3189B181B781800BD4603B090BDC04696
:1048C0004C10010021510000C40500209810010087
:1048D0002D4D000090B583B000AF0400080011001A
:1048E000FB1D221C1A70BB1D021C1A707B1D0A1CAA
:1048F0001A70FB1D1B78082B04D91A4B18001A4B91
:1049000098472BE0194B1A68FB1D1B786421D318BC
:104910005B181B78BA1D12789A4204D9144B180000
:10492000114B98471AE0114B1C68FB1D1A78BB1DF0
:104930001B78110018000F4B9847030018000B4B11
:104940001A68FB1D1B787021D3185B181B78C318DD
:104950009C22E3189B187A1D12781A70BD4603B08A
:1049600090BDC046D810010021510000C4050020B0
:104970001C1101002D4D000090B583B000AF020066
:10498000FB1D1A70BB1D0A1C1A70FB1D1B78082B1F
:1049900005D91A4B18001A4B984700232AE0194BE7
:1049A0001A68FB1D1B786421D3185B181B78BA1D8D
:1049B00012789A4205D9144B1800114B98470023DE
:1049C00018E0104B1C68FB1D1A78BB1D1B781100EA
:1049D00018000E4B9847030018000A4B1A68FB1D7D
:1049E0001B787021D3185B181B78C3189C22E3181E
:1049F0009B181B781800BD4603B090BD58110100EC
:104A000021510000C40500209C1101002D4D000023
:104A100090B583B000AF0200FB1D1A70114B1B68EC
:104A200067229B5CFA1D12789A4204D90E4B18003B
:104A30000E4B984713E00B4B1C68FB1D1B780321A2
:104A400018000B4B984703001900064B1B68732294
:104A50009B5CCB189C22E3189B1800221A70BD4661
:104A600003B090BDC4050020D81101002151000001
:104A70002D4D000080B500AF754B1B68002B03D196
:104A8000734B744A1A6006E0714B1B681B78DBB2EB
:104A9000012B00D1D8E0704B1A68704B1A606C4B38
:104AA0001B686F4A002118006E4B9847684B1B68C3
:104AB0006D4A9A81664B1B6805229A73644B1B688A
:104AC0000022DA73624B1B68654A1A61604B1B68EF
:104AD000C82252009A615E4B1B68644A5A655C4B5F
:104AE0001B6800229A655A4B1B6800225A63604B70
:104AF0009847574B1B685F4A5F499950544B1A6857
:104B0000AC23DB00C8218900D150514B1B685B4AA4
:104B1000012199504E4B1A6891231B015849D150DD
:104B20004B4B1B68574A9446634457495022180020
:104B3000564B9847464B1B68554A56499950444B2B
:104B40001B68554A0A219954414B1B68534A0B2153
:104B500099543F4B1B68524A0C2199543C4B1B689B
:104B6000504A0D2199543A4B1A68FB231B017121BD
:104B7000D154374B1B684C4A72219954344B1B68F3
:104B80004A4A73219954324B1B68494A74219954FB
:104B90002F4B1B68474AF12199542D4B1B68464AFD
:104BA000F22199542A4B1B68444AF3219954284B0B
:104BB0001B68434AF4219954424B9847244B1B6885
:104BC000F422DA72224B1B68F3229A72204B1B6884
:104BD000F2225A721E4B1B68F1221A721C4B1B6880
:104BE0007422DA711A4B1B6873229A71184B1B6876
:104BF00072225A71164B1B6871221A71144B1B6872
:104C00000422DA70124B1B6803229A70104B1B6847
:104C100002225A700E4B1B6801221A702A4B1B6825
:104C2000002B12D00A4B1B68164A9818264B1B689B
:104C300050221900154B9847054B1B68234A012148
:104C40009950234B984700E0C046BD4680BDC04602
:104C5000C4050020143B002018E000E0CC4A0020EE
:104C6000B80F000043E40000A11A0000F0F0F0F0DB
:104C7000F93B00005C050000F1F1F1F16405000072
:104C8000F2F2F2F21409000020120100ED4F0000D0
:104C900064090000F3F3F3F3AC0F0000AD0F000064
:104CA000AE0F0000AF0F0000B10F0000B20F000008
:104CB000B30F0000B40F0000B50F0000B60F0000E6
:104CC000B70F0000993D0000240500200C090000EA
:104CD0000140000080B500AF104B1B681B6B002B20
:104CE00001D1002316E00D4B1B68DA699023FF33D6
:104CF0009A4205D90A4B18000A4B9847002309E04D
:104D0000064B1A68054B1B68DB699B0006498C46FD
:104D10006344D3181800BD4680BDC046C4050020BA
:104D200034120100215100006809000080B582B0F2
:104D300000AF0200FB1D1A70BB1D0A1C1A70BB1DC0
:104D40001B78082B05D92A4B18002A4B98470023BB
:104D500049E0FB1D1B78002B0BD0274B1A68BB1DAD
:104D60001B786421D3185B181B78FA1D12789A42BD
:104D700005D9224B18001F4B9847002333E0BB1D79
:104D80001B78082B2AD8FB1D1B78002B26D01A4B2A
:104D90001A68BB1D1B786421D3185B181B78FA1D99
:104DA00012789A421AD8144B1A68BB1D1B784033EC
:104DB0005B00D31808331A880F4B1968BB1D1B788A
:104DC0007C20CB181B181B789BB2F91D0978013980
:104DD00089B24B439BB2D3189BB204E0084B180036
:104DE000044B984700231800BD4602B080BDC04662
:104DF0005C12010021510000C40500209C1201003A
:104E0000DC12010080B588B000AF0200FB1D1A70F3
:104E10005A4B1B68002B05D1594B1800594B98472A
:104E20000023A7E0FB1D1B78082B05D9564B180063
:104E3000544B984700239DE0EFF31083FB60FB6821
:104E4000BB6101233B613B6983F310884F4B1B68B7
:104E50005A1C4E4B1A60FB1D1A784D4B5200D35A08
:104E60001A004C4B1A604B4B1B68494A4821D31817
:104E70005B181B78002B17D1464B1A68454B1B68F3
:104E8000D9B2FB1D1B78424808335B00C3180233BC
:104E90001B88DBB2CB1ADBB20133D8B23C4B4821C2
:104EA0009B185B18021C1A703A4B1A681F23FB18D8
:104EB000374948208A18121812781A70FB1D1A7880
:104EC000334B5200D25AFB1D1B78314910335B0023
:104ED000CB1804331B889A420DD9FB1D1B78180090
:104EE0002D4B984703001800264B98471F23FB18AB
:104EF00000221A7031E0FB1D1B78254A59008A5A9E
:104F0000013291B2224A5B009952FB1D1A78204B64
:104F10005200D35A1900FB1D1B781D4A08335B0051
:104F2000D31802331B88CB1A7B61FB1D1B78184AF0
:104F300018335B00D31806331B881A007B699A422A
:104F40000BDAFB1D1B787A69D2B291B2104A183382
:104F50005B00D31806330A1C1A800C4B1B685A1EC0
:104F60000A4B1A60BB69BB60BB6883F310881F23C0
:104F7000FB181B781800BD4608B080BDC405002092
:104F80003C070100215100001C1301001C050020FA
:104F900034050020C80500205D3E000090B585B0B6
:104FA00000AF0200FB1D1A70BB1D0A1C1A700E23F5
:104FB000FC18FB1D1A78BB1D1B7811001800094B4B
:104FC000984703002380084B1A680E23FB181B88A0
:104FD0009C21D3185B1801221A70C046BD4605B04B
:104FE00090BDC0462D4D0000C405002080B586B0A0
:104FF00000AFF860B9607A6000237B6110E0FA6866
:105000007B69D318B9687A698A1812781A70BA68F5
:105010007B69D3181B78002B07D07B6901337B6138
:105020007A697B689A42EAD300E0C046C046BD4632
:1050300006B080BD80B582B000AF3A60FB1D021C97
:105040001A70BB1D0A1C1A703B68002B04D12A4B36
:1050500018002A4B98474BE0FB1D1B78082B04D9FE
:10506000274B1800254B984742E0BB1D1B78002BAF
:1050700004D1244B1800214B984739E0224B1A6881
:10508000FB1D1B786421D3185B181B78BA1D12789E
:105090009A4209D9FB1D1B7818001C4B9847030046
:1050A0001800164B984723E0FB1D1A78BB1D1B7890
:1050B00011001800164B984703001A00154B1A8070
:1050C000154B1B68002B13D10F4B1A68114B1B8813
:1050D0009833D318181D0C4B1A68FB1D1B787021D0
:1050E000D3185B181B781A003B6819000B4B9847C4
:1050F000BD4602B080BDC046201401002151000011
:105100005414010084140100C40500205D3E000019
:105110002D4D0000CC05002024050020ED4F00009F
:1051200080B582B000AF7860114B1B68002B01D0B6
:10513000104B9847104B1B68002B15D10E4B7A680B
:105140001A600B4B1B68002B0ED0094B1B680B4AD7
:105150009818094B1B6850221900094B9847044BBB
:105160001B68084A01219950C046BD4602B080BD67
:10517000C40500200140000024050020140900009F
:10518000ED4F00000C09000080B586B000AF0200B2
:10519000FB1D1A7000237B6100233B61FB1D1B7804
:1051A000002B00D081E0454B1800454B984782E02A
:1051B000444B1B68DA697B69D3183B61414B1A6821
:1051C0003B699B004049D3185B181B78982B31D959
:1051D0003C4B1A683B699B003B49D3185B181B7812
:1051E000A72B27D8374B1A683B699B003649D31841
:1051F0005B181A780F23FB1868321A700F23FB18FC
:105200001A783B69D2182F4B1B689B699A4248D287
:105210002C4B1A683B699B002B498C466344D01881
:105220000F23FB181B7801339B001A000021274B2A
:10523000984736E0234B1A683B699B002249D318F4
:105240005B181B78012B2DD13B695A1C1D4B1B6829
:105250009B699A420DD21B4B1A683B699B001A4905
:105260008C466344D318082200211800174B984736
:1052700018E0144B1B68144A94466344042200212E
:105280001800124B98470F4B1A683B699B000E4958
:105290008C466344D3180422002118000B4B984716
:1052A00000E0C0467B6901337B61FB1D1A787B6996
:1052B0009A4200D97CE7BD4606B080BDE4140100E7
:1052C00021510000C40500206809000043E40000EB
:1052D00080B500AF124B1B681B6B002B1CD0104B12
:1052E0001B685A6901325A610D4B1B68DA69013239
:1052F000DA610B4B1B68DA699023FF339A4207D9B6
:10530000074B1B6801221A62054B1B680022DA61F9
:105310000120044B984700E0C046BD4680BDC04612
:10532000C405002089510000B0B586B000AF02006E
:10533000BB1D1A8000237B6100233B610023FB60BF
:10534000BB1D1B88FF2B0AD0BB1D1B88604A9342E4
:1053500005D0604B1800604B98470023B3E05F4BCB
:105360001B685B6A002B18D15D4B1B68002B06D0B5
:105370005A4B1B685A4A126892085A620DE0594B00
:105380001A68594B1B689A4207D0544B1C6800207E
:10539000564B984703009B0863620C23FB181800C8
:1053A000534B9847FA68534B1B68D31A3B61FA6812
:1053B000504B1A60494B1B685B6A002B44D0474B2B
:1053C0001B685A6A3B699A421ED2444B1C68434B85
:1053D0001B68DD6A414B1B685A6A474B11003869EC
:1053E00098470300EB18E3623C4B1C683B4B1B687F
:1053F0009D6A3A4B1B68596A3A69404B10009847BE
:105400000B00EB18A36207E0344B1B68334A1268A9
:10541000916A3A698A189A62304B1B689A6A2F4BD4
:105420001B685B6A9A4213D32C4B1B68DA6A013201
:10543000DA622A4B1B68294A1268916A274A126865
:10544000526A8A1A9A6203E0244B1B68FA689A62CD
:10545000BB1D1A883B699A422FD2294B98470300FB
:105460007B617B69002B28D0BB1D1B88184A9342A7
:105470000BD17B69A9221A703B691B0C9AB27B691C
:105480005A807B6900225A7015E0BB1D1B88FF2BD8
:105490000DD17B69A8221A703B691B0A9AB27B69FD
:1054A0005A803B691B0EDAB27B695A7003E0154BD8
:1054B0001800094B9847144B98473B699BB2BA1D9B
:1054C000128813409BB21800BD4606B0B0BDC0465E
:1054D000FFFF00003C15010021510000C405002021
:1054E0002005002018E000E0CC4A002039BA000076
:1054F0000D550000D0050020E5C30000F1C40000F8
:10550000D54C00007C150100D152000080B584B05C
:1055100000AF78600023BB600023FB602D4B1B684D
:10552000012B07D17B68002B4FD02B4B1A687B686F
:105530001A604AE0294B1A68294B1B68D31A0133B9
:10554000BB60284B1A68284B1B68D31A013B002B01
:1055500003DB244B1B68FB6002E0234B1B68FB60F2
:10556000204B1B68FA689A4207D1204B1B68BA6827
:105570009A4202D2FB680133FB607B68002B16D095
:10558000164B1B6801339B08FA685A43124B1A608A
:10559000124B1B68013303221340FA685A43BB685D
:1055A000D3189A080C4B1B68D2180B4B1A600D4B82
:1055B000FA681A607B68002B03D0074B1A687B6877
:1055C0001A600A4BBA681A6000E0C046BD4604B0D3
:1055D00080BDC046100500201405002014E000E046
:1055E00018E000E0D40500200C050020D8050020BC
:1055F00080B582B000AF78607B6808331A007B68A2
:105600005A607B68012252429A607B6808331A0014
:105610007B68DA607B6808331A007B681A617B68F4
:1056200000221A60C046BD4602B080BD80B582B07F
:1056300000AF78607B6800221A61C046BD4602B0A8
:1056400080BD80B584B000AF786039607B685B68EE
:10565000FB603B68FA685A60FB689A683B689A602E
:10566000FB689B683A685A60FB683A689A603B68D6
:105670007A681A617B681B685A1C7B681A60C0468E
:10568000BD4604B080BD80B584B000AF786039609D
:105690003B681B68BB60BB68013303D17B681B6937
:1056A000FB600CE07B680833FB6002E0FB685B6832
:1056B000FB60FB685B681A68BB689A42F6D9FB68B6
:1056C0005A683B685A603B685B683A689A603B6816
:1056D000FA689A60FB683A685A603B687A681A61AF
:1056E0007B681B685A1C7B681A60C046BD4604B0C4
:1056F00080BD80B584B000AF78607B681B69FB60BB
:105700007B685B687A6892689A607B689B687A6855
:1057100052685A60FB685A687B689A4203D17B687A
:105720009A68FB685A607B6800221A61FB681B68F4
:105730005A1EFB681A60FB681B681800BD4604B05F
:1057400080BD000080B584B000AFF860B9607A60B9
:10575000FB68043BFB60FB68802252041A60FB6814
:10576000043BFB60BA68FB681A60FB68043BFB60A3
:10577000084AFB681A60FB68143BFB607A68FB68A8
:105780001A60FB68203BFB60FB681800BD4604B054
:1057900080BDC0469957000080B582B000AF00239D
:1057A0007B60074B1B68013301D072B6FEE772B60F
:1057B000C0467B68002BFCD0C046BD4602B080BD11
:1057C0003C00002080B500AFC046BD4680BD000053
:1057D0000B4A13681868203080F30988022080F390
:1057E0001488BFF36F8F3FBCAE4608BC04BC62B6E2
:1057F0001847C046C046C046C046C046C046C04620
:10580000AC380020C046C04680B500AF0E4B0E4AF3
:105810001268FF2109040A431A600B4B0A4A1268F6
:10582000FF2109060A431A60084B9847084B0022DB
:105830001A60084B9847084B9847084B9847002335
:105840001800BD4680BDC04620ED00E0695900004B
:105850003C000020D1570000BD7E00009957000099
:1058600080B500AF034B802252051A60C046BD468A
:1058700080BDC04604ED00E080B500AF72B6064BB7
:105880001B685A1C044B1A60BFF34F8FBFF36F8F16
:10589000C046BD4680BDC0463C00002080B500AF7C
:1058A000094B1B68002B01D172B6FEE7064B1B6843
:1058B0005A1E054B1A60044B1B68002B00D162B6C0
:1058C000C046BD4680BDC0463C000020EFF31080BE
:1058D00072B67047C046180080F310887047C04603
:1058E000EFF309800E4B1A6820381060F0C0444670
:1058F0004D4656465F46F0C008B572B602F0DEFA75
:1059000062B60CBC116808681030F0C8A046A94601
:10591000B246BB4680F309882038F0C81847C04615
:10592000AC380020C046C04680B582B000AF0A4BFC
:10593000984703007B60094B9847031E03D0084B30
:10594000802252051A607B681800064B9847C046B3
:10595000BD4602B080BDC046CD580000CD7C0000E1
:1059600004ED00E0D9580000B0B500AF0B4B0022A9
:105970001A600B4B00221A600A4C00200A4B984711
:105980000A4BFA22910098470300013B2360034B26
:1059900007221A60C046BD46B0BDC04610E000E018
:1059A00018E000E014E000E039BA0000E5C30000B0
:1059B00080B584B000AF78600023FB607B6807226D
:1059C000134004D07B680722934308337B60214B4C
:1059D0009847214B1B68002B05D1204B072293438E
:1059E0001A001D4B1A601E4B1A687B68D3181D4A9B
:1059F000934213D81A4B1A687B68D218184B1B684D
:105A00009A420BD9144B1A68154B1B68D318FB60CC
:105A1000134B1A687B68D218114B1A60FB68002B75
:105A200006D0FB687A68190094200F4B984705E070
:105A3000FB687A681900E8200B4B98470B4B984796
:105A4000FB68002B01D10A4B9847FB681800BD4644
:105A500004B080BD297B0000A8380020E4050020A8
:105A6000A4380020BF32000029410000417B000023
:105A7000B5C3000080B582B000AF78607B68002BB2
:105A800001D072B6FEE7C046BD4602B080BD000040
:105A900080B500AF034B1B68CB229201D31A1800CC
:105AA000BD4680BDA438002080B584B000AF7860CA
:105AB00039607B68FB60FB68002B01D172B6FEE7A2
:105AC000234B9847FB681A68FB68D96BFB681B6C13
:105AD0004B43D218FB685A60FB6800229A63FB684C
